{
  "_format": "hh-sol-artifact-1",
  "contractName": "UnsignedConsumerTyped",
  "sourceName": "contracts/prb/UnsignedConsumerTyped.sol",
  "abi": [
    {
      "inputs": [
        {
          "internalType": "uint256",
          "name": "x",
          "type": "uint256"
        }
      ],
      "name": "PRBMathUD60x18__LogInputTooSmall",
      "type": "error"
    },
    {
      "inputs": [
        {
          "internalType": "uint256",
          "name": "prod1",
          "type": "uint256"
        }
      ],
      "name": "PRBMath__MulDivFixedPointOverflow",
      "type": "error"
    },
    {
      "inputs": [
        {
          "internalType": "uint256",
          "name": "x",
          "type": "uint256"
        }
      ],
      "name": "unsignedLog2",
      "outputs": [
        {
          "internalType": "uint256",
          "name": "result",
          "type": "uint256"
        }
      ],
      "stateMutability": "pure",
      "type": "function"
    },
    {
      "inputs": [
        {
          "internalType": "uint256",
          "name": "x",
          "type": "uint256"
        },
        {
          "internalType": "uint256",
          "name": "y",
          "type": "uint256"
        }
      ],
      "name": "unsignedMul",
      "outputs": [
        {
          "internalType": "uint256",
          "name": "result",
          "type": "uint256"
        }
      ],
      "stateMutability": "pure",
      "type": "function"
    },
    {
      "inputs": [
        {
          "internalType": "uint256",
          "name": "principal",
          "type": "uint256"
        },
        {
          "internalType": "uint256",
          "name": "apr",
          "type": "uint256"
        }
      ],
      "name": "unsignedYield",
      "outputs": [
        {
          "internalType": "uint256",
          "name": "result",
          "type": "uint256"
        }
      ],
      "stateMutability": "pure",
      "type": "function"
    }
  ],
  "bytecode": "0x608060405234801561001057600080fd5b50610718806100206000396000f3fe608060405234801561001057600080fd5b50600436106100415760003560e01c806305d973a714610046578063a412350714610076578063ef869c6d146100a6575b600080fd5b610060600480360381019061005b91906105d6565b6100d6565b60405161006d9190610621565b60405180910390f35b610090600480360381019061008b91906105d6565b61011e565b60405161009d9190610621565b60405180910390f35b6100c060048036038101906100bb91906105ad565b610166565b6040516100cd9190610621565b60405180910390f35b600080604051806020016040528085815250905060006040518060200160405280858152509050610110818361018f90919063ffffffff16565b600001519250505092915050565b600080604051806020016040528085815250905060006040518060200160405280858152509050610158818361018f90919063ffffffff16565b600001519250505092915050565b6000806040518060200160405280848152509050610183816101bf565b60000151915050919050565b610197610585565b60405180602001604052806101b48560000151856000015161034a565b815250905092915050565b6101c7610585565b600082600001519050670de0b6b3a764000081101561021d57806040517fd88504dc0000000000000000000000000000000000000000000000000000000081526004016102149190610621565b60405180910390fd5b6000610266670de0b6b3a76400008381610260577f4e487b7100000000000000000000000000000000000000000000000000000000600052601260045260246000fd5b0461046e565b90506000670de0b6b3a76400008202905060008284901c9050670de0b6b3a76400008114156102a957604051806020016040528083815250945050505050610345565b60006706f05b59d3b2000090505b600081111561032e57670de0b6b3a764000082830281610300577f4e487b7100000000000000000000000000000000000000000000000000000000600052601260045260246000fd5b049150670de0b6b3a76400006002028210610322578083019250600182901c91505b600181901c90506102b7565b506040518060200160405280838152509450505050505b919050565b60008060008019848609848602925082811083820303915050670de0b6b3a764000081106103af57806040517fd31b34020000000000000000000000000000000000000000000000000000000081526004016103a69190610621565b60405180910390fd5b600080670de0b6b3a764000086880991506706f05b59d3b1ffff8211905060008314156104225780670de0b6b3a76400008581610415577f4e487b7100000000000000000000000000000000000000000000000000000000600052601260045260246000fd5b0401945050505050610468565b807faccb18165bd6fe31ae1cf318dc5b51eee0e1ba569b88cd74c1773b91fac1066960016204000080600003040186851186030262040000858803041702019450505050505b92915050565b6000700100000000000000000000000000000000821061049f57608082901c915060808161049c919061063c565b90505b6801000000000000000082106104c657604082901c91506040816104c3919061063c565b90505b64010000000082106104e957602082901c91506020816104e6919061063c565b90505b62010000821061050a57601082901c9150601081610507919061063c565b90505b610100821061052a57600882901c9150600881610527919061063c565b90505b6010821061054957600482901c9150600481610546919061063c565b90505b6004821061056857600282901c9150600281610565919061063c565b90505b600282106105805760018161057d919061063c565b90505b919050565b6040518060200160405280600081525090565b6000813590506105a7816106cb565b92915050565b6000602082840312156105bf57600080fd5b60006105cd84828501610598565b91505092915050565b600080604083850312156105e957600080fd5b60006105f785828601610598565b925050602061060885828601610598565b9150509250929050565b61061b81610692565b82525050565b60006020820190506106366000830184610612565b92915050565b600061064782610692565b915061065283610692565b9250827fffffffffffffffffffffffffffffffffffffffffffffffffffffffffffffffff038211156106875761068661069c565b5b828201905092915050565b6000819050919050565b7f4e487b7100000000000000000000000000000000000000000000000000000000600052601160045260246000fd5b6106d481610692565b81146106df57600080fd5b5056fea2646970667358221220b85ac2cbade236328f8f80cf36e3e91fe680f365d3b74a7437658ef7856614fd64736f6c63430008040033",
  "linkReferences": {},
  "deployedLinkReferences": {}
}