{
  "_format": "hh-sol-artifact-1",
  "contractName": "SignedConsumer",
  "sourceName": "contracts/prb/SignedConsumer.sol",
  "abi": [
    {
      "inputs": [
        {
          "internalType": "int256",
          "name": "x",
          "type": "int256"
        }
      ],
      "name": "PRBMathSD59x18__LogInputTooSmall",
      "type": "error"
    },
    {
      "inputs": [],
      "name": "PRBMathSD59x18__MulInputTooSmall",
      "type": "error"
    },
    {
      "inputs": [
        {
          "internalType": "uint256",
          "name": "rAbs",
          "type": "uint256"
        }
      ],
      "name": "PRBMathSD59x18__MulOverflow",
      "type": "error"
    },
    {
      "inputs": [
        {
          "internalType": "uint256",
          "name": "prod1",
          "type": "uint256"
        }
      ],
      "name": "PRBMath__MulDivFixedPointOverflow",
      "type": "error"
    },
    {
      "inputs": [
        {
          "internalType": "int256",
          "name": "x",
          "type": "int256"
        }
      ],
      "name": "signedLog2",
      "outputs": [
        {
          "internalType": "int256",
          "name": "result",
          "type": "int256"
        }
      ],
      "stateMutability": "pure",
      "type": "function"
    },
    {
      "inputs": [
        {
          "internalType": "int256",
          "name": "x",
          "type": "int256"
        },
        {
          "internalType": "int256",
          "name": "y",
          "type": "int256"
        }
      ],
      "name": "signedMul",
      "outputs": [
        {
          "internalType": "int256",
          "name": "result",
          "type": "int256"
        }
      ],
      "stateMutability": "pure",
      "type": "function"
    },
    {
      "inputs": [
        {
          "internalType": "int256",
          "name": "principal",
          "type": "int256"
        },
        {
          "internalType": "int256",
          "name": "apr",
          "type": "int256"
        }
      ],
      "name": "signedYield",
      "outputs": [
        {
          "internalType": "int256",
          "name": "result",
          "type": "int256"
        }
      ],
      "stateMutability": "pure",
      "type": "function"
    }
  ],
  "bytecode": "0x608060405234801561001057600080fd5b50610817806100206000396000f3fe608060405234801561001057600080fd5b50600436106100415760003560e01c8063048236d7146100465780638c737efb14610076578063bb621113146100a6575b600080fd5b610060600480360381019061005b91906106a1565b6100d6565b60405161006d91906106fb565b60405180910390f35b610090600480360381019061008b9190610678565b6100f3565b60405161009d91906106fb565b60405180910390f35b6100c060048036038101906100bb91906106a1565b610105565b6040516100cd91906106fb565b60405180910390f35b60006100eb828461012290919063ffffffff16565b905092915050565b60006100fe8261027f565b9050919050565b600061011a828461012290919063ffffffff16565b905092915050565b60007f800000000000000000000000000000000000000000000000000000000000000083148061017157507f800000000000000000000000000000000000000000000000000000000000000082145b156101a8576040517f3406846c00000000000000000000000000000000000000000000000000000000815260040160405180910390fd5b600080600085126101b957846101be565b846000035b9150600084126101ce57836101d3565b836000035b905060006101e18383610428565b90507f7fffffffffffffffffffffffffffffffffffffffffffffffffffffffffffffff81111561024857806040517fbf79e8d900000000000000000000000000000000000000000000000000000000815260040161023f9190610716565b60405180910390fd5b60008060016000038813915060016000038713905060018183181461026d5782610272565b826000035b9550505050505092915050565b60008082136102c557816040517f613f4fba0000000000000000000000000000000000000000000000000000000081526004016102bc91906106fb565b60405180910390fd5b6000670de0b6b3a764000083126102df5760019050610317565b7fffffffffffffffffffffffffffffffffffffffffffffffffffffffffffffffff9050826ec097ce7bc90715b34b9f10000000000492505b6000610360670de0b6b3a7640000858161035a577f4e487b7100000000000000000000000000000000000000000000000000000000600052601260045260246000fd5b0561054c565b9050670de0b6b3a76400008102925060008185901d9050670de0b6b3a7640000811415610394578284029350505050610423565b60006706f05b59d3b2000090505b600081131561041957670de0b6b3a7640000828302816103eb577f4e487b7100000000000000000000000000000000000000000000000000000000600052601260045260246000fd5b059150670de0b6b3a7640000600202821261040d578085019450600182901d91505b600181901d90506103a2565b5082840293505050505b919050565b60008060008019848609848602925082811083820303915050670de0b6b3a7640000811061048d57806040517fd31b34020000000000000000000000000000000000000000000000000000000081526004016104849190610716565b60405180910390fd5b600080670de0b6b3a764000086880991506706f05b59d3b1ffff8211905060008314156105005780670de0b6b3a764000085816104f3577f4e487b7100000000000000000000000000000000000000000000000000000000600052601260045260246000fd5b0401945050505050610546565b807faccb18165bd6fe31ae1cf318dc5b51eee0e1ba569b88cd74c1773b91fac1066960016204000080600003040186851186030262040000858803041702019450505050505b92915050565b6000700100000000000000000000000000000000821061057d57608082901c915060808161057a9190610731565b90505b6801000000000000000082106105a457604082901c91506040816105a19190610731565b90505b64010000000082106105c757602082901c91506020816105c49190610731565b90505b6201000082106105e857601082901c91506010816105e59190610731565b90505b610100821061060857600882901c91506008816106059190610731565b90505b6010821061062757600482901c91506004816106249190610731565b90505b6004821061064657600282901c91506002816106439190610731565b90505b6002821061065e5760018161065b9190610731565b90505b919050565b600081359050610672816107ca565b92915050565b60006020828403121561068a57600080fd5b600061069884828501610663565b91505092915050565b600080604083850312156106b457600080fd5b60006106c285828601610663565b92505060206106d385828601610663565b9150509250929050565b6106e681610787565b82525050565b6106f581610791565b82525050565b600060208201905061071060008301846106dd565b92915050565b600060208201905061072b60008301846106ec565b92915050565b600061073c82610791565b915061074783610791565b9250827fffffffffffffffffffffffffffffffffffffffffffffffffffffffffffffffff0382111561077c5761077b61079b565b5b828201905092915050565b6000819050919050565b6000819050919050565b7f4e487b7100000000000000000000000000000000000000000000000000000000600052601160045260246000fd5b6107d381610787565b81146107de57600080fd5b5056fea2646970667358221220f35e5335005686a8d08cd2a9d020dd65996861f8d1aaaf0127586775395ff9bc64736f6c63430008040033",
  "linkReferences": {},
  "deployedLinkReferences": {}
}