{
  "_format": "hh-sol-artifact-1",
  "contractName": "Bus",
  "sourceName": "contracts/Bus.sol",
  "abi": [
    {
      "inputs": [
        {
          "internalType": "address",
          "name": "_owner",
          "type": "address"
        },
        {
          "internalType": "string",
          "name": "_model",
          "type": "string"
        }
      ],
      "stateMutability": "payable",
      "type": "constructor"
    },
    {
      "inputs": [],
      "name": "busAddr",
      "outputs": [
        {
          "internalType": "address",
          "name": "",
          "type": "address"
        }
      ],
      "stateMutability": "view",
      "type": "function"
    },
    {
      "inputs": [],
      "name": "model",
      "outputs": [
        {
          "internalType": "string",
          "name": "",
          "type": "string"
        }
      ],
      "stateMutability": "view",
      "type": "function"
    },
    {
      "inputs": [],
      "name": "owner",
      "outputs": [
        {
          "internalType": "address",
          "name": "",
          "type": "address"
        }
      ],
      "stateMutability": "view",
      "type": "function"
    },
    {
      "inputs": [
        {
          "internalType": "string",
          "name": "_model",
          "type": "string"
        }
      ],
      "name": "setModel",
      "outputs": [],
      "stateMutability": "nonpayable",
      "type": "function"
    },
    {
      "inputs": [
        {
          "internalType": "address",
          "name": "_owner",
          "type": "address"
        }
      ],
      "name": "setOwner",
      "outputs": [],
      "stateMutability": "nonpayable",
      "type": "function"
    }
  ],
  "bytecode": "0x608060405260405162000a6338038062000a63833981810160405281019062000029919062000204565b816000806101000a81548173ffffffffffffffffffffffffffffffffffffffff021916908373ffffffffffffffffffffffffffffffffffffffff160217905550806001908051906020019062000081929190620000cb565b5030600260006101000a81548173ffffffffffffffffffffffffffffffffffffffff021916908373ffffffffffffffffffffffffffffffffffffffff16021790555050506200041c565b828054620000d99062000327565b90600052602060002090601f016020900481019282620000fd576000855562000149565b82601f106200011857805160ff191683800117855562000149565b8280016001018555821562000149579182015b82811115620001485782518255916020019190600101906200012b565b5b5090506200015891906200015c565b5090565b5b80821115620001775760008160009055506001016200015d565b5090565b6000620001926200018c8462000287565b6200025e565b905082815260208101848484011115620001ab57600080fd5b620001b8848285620002f1565b509392505050565b600081519050620001d18162000402565b92915050565b600082601f830112620001e957600080fd5b8151620001fb8482602086016200017b565b91505092915050565b600080604083850312156200021857600080fd5b60006200022885828601620001c0565b925050602083015167ffffffffffffffff8111156200024657600080fd5b6200025485828601620001d7565b9150509250929050565b60006200026a6200027d565b90506200027882826200035d565b919050565b6000604051905090565b600067ffffffffffffffff821115620002a557620002a4620003c2565b5b620002b082620003f1565b9050602081019050919050565b6000620002ca82620002d1565b9050919050565b600073ffffffffffffffffffffffffffffffffffffffff82169050919050565b60005b8381101562000311578082015181840152602081019050620002f4565b8381111562000321576000848401525b50505050565b600060028204905060018216806200034057607f821691505b6020821081141562000357576200035662000393565b5b50919050565b6200036882620003f1565b810181811067ffffffffffffffff821117156200038a5762000389620003c2565b5b80604052505050565b7f4e487b7100000000000000000000000000000000000000000000000000000000600052602260045260246000fd5b7f4e487b7100000000000000000000000000000000000000000000000000000000600052604160045260246000fd5b6000601f19601f8301169050919050565b6200040d81620002bd565b81146200041957600080fd5b50565b610637806200042c6000396000f3fe608060405234801561001057600080fd5b50600436106100575760003560e01c80630ad9d0521461005c57806313af40351461007a57806346d75c8c146100965780636438315e146100b25780638da5cb5b146100d0575b600080fd5b6100646100ee565b6040516100719190610410565b60405180910390f35b610094600480360381019061008f9190610343565b61017c565b005b6100b060048036038101906100ab919061036c565b6101bf565b005b6100ba6101d9565b6040516100c791906103f5565b60405180910390f35b6100d86101ff565b6040516100e591906103f5565b60405180910390f35b600180546100fb90610518565b80601f016020809104026020016040519081016040528092919081815260200182805461012790610518565b80156101745780601f1061014957610100808354040283529160200191610174565b820191906000526020600020905b81548152906001019060200180831161015757829003601f168201915b505050505081565b806000806101000a81548173ffffffffffffffffffffffffffffffffffffffff021916908373ffffffffffffffffffffffffffffffffffffffff16021790555050565b80600190805190602001906101d5929190610223565b5050565b600260009054906101000a900473ffffffffffffffffffffffffffffffffffffffff1681565b60008054906101000a900473ffffffffffffffffffffffffffffffffffffffff1681565b82805461022f90610518565b90600052602060002090601f0160209004810192826102515760008555610298565b82601f1061026a57805160ff1916838001178555610298565b82800160010185558215610298579182015b8281111561029757825182559160200191906001019061027c565b5b5090506102a591906102a9565b5090565b5b808211156102c25760008160009055506001016102aa565b5090565b60006102d96102d484610457565b610432565b9050828152602081018484840111156102f157600080fd5b6102fc8482856104d6565b509392505050565b600081359050610313816105ea565b92915050565b600082601f83011261032a57600080fd5b813561033a8482602086016102c6565b91505092915050565b60006020828403121561035557600080fd5b600061036384828501610304565b91505092915050565b60006020828403121561037e57600080fd5b600082013567ffffffffffffffff81111561039857600080fd5b6103a484828501610319565b91505092915050565b6103b6816104a4565b82525050565b60006103c782610488565b6103d18185610493565b93506103e18185602086016104e5565b6103ea816105d9565b840191505092915050565b600060208201905061040a60008301846103ad565b92915050565b6000602082019050818103600083015261042a81846103bc565b905092915050565b600061043c61044d565b9050610448828261054a565b919050565b6000604051905090565b600067ffffffffffffffff821115610472576104716105aa565b5b61047b826105d9565b9050602081019050919050565b600081519050919050565b600082825260208201905092915050565b60006104af826104b6565b9050919050565b600073ffffffffffffffffffffffffffffffffffffffff82169050919050565b82818337600083830152505050565b60005b838110156105035780820151818401526020810190506104e8565b83811115610512576000848401525b50505050565b6000600282049050600182168061053057607f821691505b602082108114156105445761054361057b565b5b50919050565b610553826105d9565b810181811067ffffffffffffffff82111715610572576105716105aa565b5b80604052505050565b7f4e487b7100000000000000000000000000000000000000000000000000000000600052602260045260246000fd5b7f4e487b7100000000000000000000000000000000000000000000000000000000600052604160045260246000fd5b6000601f19601f8301169050919050565b6105f3816104a4565b81146105fe57600080fd5b5056fea264697066735822122075ca1964ab6e9de9b700b5f6e1e199a63e74bb880dc6331d73451167b90f126364736f6c63430008040033",
  "linkReferences": {},
  "deployedLinkReferences": {}
}